:0A06F50000010202030304040505DE
:10033200E4F513F512F511F510C203C200C202C2B0
:10034200011205B87E077F008E238F24752B077557
:100352002C1275210775221C752907752A4A752DDD
:1003620007752E78EE54C0700302043175140075BF
:1003720015808E168F17C3749A9FFF74079ECF2421
:1003820002CF3400FEE48F0F8E0EF50DF50CF50B47
:10039200F50AF509F508AF0FAE0EAD0DAC0CAB0BBF
:1003A200AA0AA909A808C31208C45031AE0AAF0BA1
:1003B200E5172FF582E5163EF583E0FDE5152FF5ED
:1003C20082E5143EF583EDF0EF2401F50BE43EF5F2
:1003D2000AE43509F509E43508F50880B9851423DE
:1003E20085152474002480FF740734FFFEC3E52CB6
:1003F2009FF52CE52B9EF52BC3E5269FF526E525DB
:100402009EF525C3E5289FF528E5279EF527C3E538
:10041200229FF522E5219EF521C3E52A9FF52AE5D3
:10042200299EF529C3E52E9FF52EE52D9EF52DD2A9
:10043200E843D82090E668E04409F090E65CE044A6
:100442003DF0D2AF90E680E020E105D20412079C95
:1004520090E680E054F7F0538EF8C2031206FF30A4
:100462000105120080C2013003F21208F550EDC2FC
:100472000312084F20001690E682E030E704E020E5
:10048200E1EF90E682E030E604E020E0E41207F8D3
:050492001208F780C70D
:0B04F50090E50DE030E402C322D322AA
:1000800090E6B9E0700302016A14700302021324BF
:10009000FE70030202A924FB7003020164147003C2
:1000A00002015E147003020152147003020158240D
:1000B00005600302031E1208F9400302032A90E6BA
:1000C000BBE024FE603B14605624FD6016146040C3
:1000D00024067074E52390E6B3F0E52490E6B4F0CE
:1000E00002032A1204F5500FE52B90E6B3F0E52C3D
:1000F00090E6B4F002032A90E6A0E04401F0020387
:100100002AE52590E6B3F0E52690E6B4F002032A4E
:10011000E52790E6B3F0E52890E6B4F002032A90D4
:10012000E6BAE0FF120824AA06A9077B01EA4960A3
:100130000DEE90E6B3F0EF90E6B4F002032A90E6FD
:10014000A0E04401F002032A90E6A0E04401F0029E
:10015000032A1208B202032A1208E902032A12082B
:10016000E102032A1208A002032A1208FB4003023C
:10017000032A90E6B8E0247F602B14603C240260E0
:1001800003020209A200E433FF25E0FFA202E433E8
:100190004F90E740F0E4A3F090E68AF090E68B748D
:1001A00002F002032AE490E740F0A3F090E68AF020
:1001B00090E68B7402F002032A90E6BCE0547EFFC6
:1001C0007E00E0D3948040067C007D0180047C00AA
:1001D0007D00EC4EFEED4F24F5F58274063EF5836E
:1001E000E493FF3395E0FEEF24A1FFEE34E68F8227
:1001F000F583E0540190E740F0E4A3F090E68AF044
:1002000090E68B7402F002032A90E6A0E04401F02D
:1002100002032A1208FD400302032A90E6B8E024F4
:10022000FE601D2402600302032A90E6BAE0B401D6
:1002300005C20002032A90E6A0E04401F002032A6E
:1002400090E6BAE0705990E6BCE0547EFF7E00E094
:10025000D3948040067C007D0180047C007D00EC0E
:100260004EFEED4F24F5F58274063EF583E493FFD0
:100270003395E0FEEF24A1FFEE34E68F82F583E0B4
:1002800054FEF090E6BCE05480FF131313541FFF9C
:10029000E0540F2F90E683F0E04420F002032A9010
:1002A000E6A0E04401F002032A1208FF507C90E629
:1002B000B8E024FE60202402705B90E6BAE0B4014E
:1002C00004D200806590E6BAE06402605D90E6A02A
:1002D000E04401F0805490E6BCE0547EFF7E00E0F4
:1002E000D3948040067C007D0180047C007D00EC7E
:1002F0004EFEED4F24F5F58274063EF583E493FF40
:100300003395E0FEEF24A1FFEE34E68F82F583E023
:100310004401F0801590E6A0E04401F0800C120743
:10032000CB500790E6A0E04401F090E6A0E04480C6
:01033000F0DC
:0103310022A9
:030033000208F1CF
:0408F10053D8EF32B7
:1005B80090E600E054E74410F090E601E0444BF088
:1005C80000000090E60274C8F000000090E6037492
:1005D800DEF000000090E6707440F0000000E49047
:1005E800E609F000000090E61074A0F090E611F023
:1005F80000000090E61274A2F000000090E6137468
:10060800A0F000000090E61474E2F000000090E60C
:100618001574E0F0E490E618F090E619F000000098
:1006280090E6187411F090E619F0000000E490E6E6
:100638001AF090E61BF000000090E61A7409F0909A
:10064800E61BF000000000000090E6917480F000C6
:100658000000F000000090E695F0000000F043AFC5
:0206680001226D
:0106FF0022D8
:0208F500D3220C
:0208F700D3220A
:0208F900D32208
:0808E10090E6BAE0F51BD322FA
:1008A00090E740E51BF0E490E68AF090E68B04F0D8
:0208B000D32251
:0808E90090E6BAE0F51AD322F3
:1008B20090E740E51AF0E490E68AF090E68B04F0C7
:0208C200D3223F
:0208FB00D32206
:0208FD00D32204
:0208FF00D32202
:1007CB0090E6B9E0242F601204701E90E604E0FF5F
:1007DB00430780000000EFF0801190E604E0FF5328
:0C07EB00077F000000EFF08002D322C363
:0107F70022DF
:1004DD00C0E0C083C082D2015391EF90E65D7401FC
:0804ED00F0D082D083D0E03290
:10087400C0E0C083C0825391EF90E65D7404F0D071
:0608840082D083D0E032B7
:10088A00C0E0C083C0825391EF90E65D7402F0D05D
:06089A0082D083D0E032A1
:1006A700C0E0C083C082852925852A2685268285C4
:1006B7002583A37402F08521278522288528828532
:1006C7002783A37407F05391EF90E65D7410F0D081
:0606D70082D083D0E03266
:1006DD00C0E0C083C082D2035391EF90E65D7408F1
:0806ED00F0D082D083D0E0328E
:10066A00C0E0C083C08290E680E030E72085212583
:10067A00852226852682852583A37402F08529276B
:10068A00852A28852882852783A37407F05391EF4A
:0D069A0090E65D7420F0D082D083D0E03275
:0109010032C3
:0109020032C2
:0109030032C1
:0109040032C0
:0109050032BF
:0109060032BE
:0109070032BD
:0109080032BC
:0109090032BB
:01090A0032BA
:01090B0032B9
:01090C0032B8
:01090D0032B7
:01090E0032B6
:01090F0032B5
:0109100032B4
:0109110032B3
:0109120032B2
:0109130032B1
:0109140032B0
:0109150032AF
:0109160032AE
:0109170032AD
:0109180032AC
:0109190032AB
:01091A0032AA
:01091B0032A9
:01091C0032A8
:01091D0032A7
:01091E0032A6
:01091F0032A5
:0109200032A4
:0109210032A3
:0109220032A2
:0109230032A1
:0109240032A0
:100700001201000200000040B404041000000102C5
:1007100000010A06000200000040010009022E004C
:1007200001010080320904000004FF0000000705F9
:10073000020200020007050402000200070586020B
:100740000002000705880200020009022E000101D4
:100750000080320904000004FF00000007050202C7
:100760004000000705040240000007058602400023
:100770000007058802400000040309041003430039
:100780007900700072006500730073000E0345006D
:0C0790005A002D005500530042000000EC
:1007F80090E682E030E004E020E60B90E682E0300C
:10080800E119E030E71590E680E04401F07F147EBE
:0C0818000012049790E680E054FEF022ED
:10079C0030040990E680E0440AF0800790E680E09F
:1007AC004408F07FDC7E0512049790E65D74FFF040
:0F07BC0090E65FF05391EF90E680E054F7F02263
:02082400A90722
:10082600AE2DAF2E8F828E83A3E064037017AD01C9
:1008360019ED7001228F828E83E07C002FFDEC3E45
:08084600FEAF0580DFE4FEFFB8
:01084E002287
:10084F0090E682E044C0F090E681F043870100001B
:04085F000000002273
:100497008E188F1990E600E054187012E5192401A0
:1004A700FFE43518C313F518EF13F519801590E617
:1004B70000E05418FFBF100BE51925E0F519E51802
:1004C70033F518E5191519AE18700215184E6005A1
:0604D70012086380EE2212
:100863007400F58690FDA57C05A3E582458370F9A8
:010873002262
:03004300020500B3
:03005300020500A3
:100500000204DD0002088A00020874000206DD0011
:100510000206A70002066A000209010002090200A1
:10052000020903000209040002090500020906008D
:1005300002090700020908000209090002090A006D
:1005400002090B000209020002090C0002090D0059
:1005500002090E0002090F00020910000209110031
:100560000209120002090200020902000209020047
:1005700002091300020914000209150002091600FD
:1005800002091700020918000209190002091A00DD
:1005900002091B0002091C0002091D0002091E00BD
:1005A00002091F000209200002092100020922009D
:0805B0000209230002092400E6
:030000000208D51E
:0C08D500787FE4F6D8FD75812E02033216
:1008C400EB9FF5F0EA9E42F0E99D42F0E89C45F08A
:0108D4002201
:00000001FF
